{
  "_format": "hh-sol-artifact-1",
  "contractName": "Airdrop",
  "sourceName": "safe-token/contracts/Airdrop.sol",
  "abi": [
    {
      "inputs": [
        {
          "internalType": "address",
          "name": "_token",
          "type": "address"
        },
        {
          "internalType": "address",
          "name": "_manager",
          "type": "address"
        },
        {
          "internalType": "uint64",
          "name": "_redeemDeadline",
          "type": "uint64"
        }
      ],
      "stateMutability": "nonpayable",
      "type": "constructor"
    },
    {
      "anonymous": false,
      "inputs": [
        {
          "indexed": true,
          "internalType": "bytes32",
          "name": "id",
          "type": "bytes32"
        },
        {
          "indexed": true,
          "internalType": "address",
          "name": "account",
          "type": "address"
        }
      ],
      "name": "AddedVesting",
      "type": "event"
    },
    {
      "anonymous": false,
      "inputs": [
        {
          "indexed": true,
          "internalType": "bytes32",
          "name": "id",
          "type": "bytes32"
        }
      ],
      "name": "CancelledVesting",
      "type": "event"
    },
    {
      "anonymous": false,
      "inputs": [
        {
          "indexed": true,
          "internalType": "bytes32",
          "name": "id",
          "type": "bytes32"
        },
        {
          "indexed": true,
          "internalType": "address",
          "name": "account",
          "type": "address"
        },
        {
          "indexed": true,
          "internalType": "address",
          "name": "beneficiary",
          "type": "address"
        }
      ],
      "name": "ClaimedVesting",
      "type": "event"
    },
    {
      "anonymous": false,
      "inputs": [
        {
          "indexed": true,
          "internalType": "bytes32",
          "name": "id",
          "type": "bytes32"
        }
      ],
      "name": "PausedVesting",
      "type": "event"
    },
    {
      "anonymous": false,
      "inputs": [
        {
          "indexed": true,
          "internalType": "bytes32",
          "name": "id",
          "type": "bytes32"
        }
      ],
      "name": "UnpausedVesting",
      "type": "event"
    },
    {
      "inputs": [
        {
          "internalType": "address",
          "name": "",
          "type": "address"
        },
        {
          "internalType": "uint8",
          "name": "",
          "type": "uint8"
        },
        {
          "internalType": "bool",
          "name": "",
          "type": "bool"
        },
        {
          "internalType": "uint16",
          "name": "",
          "type": "uint16"
        },
        {
          "internalType": "uint64",
          "name": "",
          "type": "uint64"
        },
        {
          "internalType": "uint128",
          "name": "",
          "type": "uint128"
        }
      ],
      "name": "addVesting",
      "outputs": [],
      "stateMutability": "pure",
      "type": "function"
    },
    {
      "inputs": [
        {
          "internalType": "bytes32",
          "name": "vestingId",
          "type": "bytes32"
        }
      ],
      "name": "calculateVestedAmount",
      "outputs": [
        {
          "internalType": "uint128",
          "name": "vestedAmount",
          "type": "uint128"
        },
        {
          "internalType": "uint128",
          "name": "claimedAmount",
          "type": "uint128"
        }
      ],
      "stateMutability": "view",
      "type": "function"
    },
    {
      "inputs": [
        {
          "internalType": "bytes32",
          "name": "vestingId",
          "type": "bytes32"
        }
      ],
      "name": "cancelVesting",
      "outputs": [],
      "stateMutability": "nonpayable",
      "type": "function"
    },
    {
      "inputs": [
        {
          "internalType": "address",
          "name": "beneficiary",
          "type": "address"
        }
      ],
      "name": "claimUnusedTokens",
      "outputs": [],
      "stateMutability": "nonpayable",
      "type": "function"
    },
    {
      "inputs": [
        {
          "internalType": "bytes32",
          "name": "vestingId",
          "type": "bytes32"
        },
        {
          "internalType": "address",
          "name": "beneficiary",
          "type": "address"
        },
        {
          "internalType": "uint128",
          "name": "tokensToClaim",
          "type": "uint128"
        }
      ],
      "name": "claimVestedTokens",
      "outputs": [],
      "stateMutability": "nonpayable",
      "type": "function"
    },
    {
      "inputs": [
        {
          "internalType": "bytes32",
          "name": "vestingId",
          "type": "bytes32"
        },
        {
          "internalType": "address",
          "name": "beneficiary",
          "type": "address"
        },
        {
          "internalType": "uint128",
          "name": "tokensToClaim",
          "type": "uint128"
        }
      ],
      "name": "claimVestedTokensViaModule",
      "outputs": [],
      "stateMutability": "nonpayable",
      "type": "function"
    },
    {
      "inputs": [
        {
          "internalType": "bytes32",
          "name": "_root",
          "type": "bytes32"
        }
      ],
      "name": "initializeRoot",
      "outputs": [],
      "stateMutability": "nonpayable",
      "type": "function"
    },
    {
      "inputs": [
        {
          "internalType": "bytes32",
          "name": "vestingId",
          "type": "bytes32"
        }
      ],
      "name": "pauseVesting",
      "outputs": [],
      "stateMutability": "nonpayable",
      "type": "function"
    },
    {
      "inputs": [],
      "name": "poolManager",
      "outputs": [
        {
          "internalType": "address",
          "name": "",
          "type": "address"
        }
      ],
      "stateMutability": "view",
      "type": "function"
    },
    {
      "inputs": [
        {
          "internalType": "uint8",
          "name": "curveType",
          "type": "uint8"
        },
        {
          "internalType": "uint16",
          "name": "durationWeeks",
          "type": "uint16"
        },
        {
          "internalType": "uint64",
          "name": "startDate",
          "type": "uint64"
        },
        {
          "internalType": "uint128",
          "name": "amount",
          "type": "uint128"
        },
        {
          "internalType": "bytes32[]",
          "name": "proof",
          "type": "bytes32[]"
        }
      ],
      "name": "redeem",
      "outputs": [],
      "stateMutability": "nonpayable",
      "type": "function"
    },
    {
      "inputs": [],
      "name": "redeemDeadline",
      "outputs": [
        {
          "internalType": "uint64",
          "name": "",
          "type": "uint64"
        }
      ],
      "stateMutability": "view",
      "type": "function"
    },
    {
      "inputs": [],
      "name": "root",
      "outputs": [
        {
          "internalType": "bytes32",
          "name": "",
          "type": "bytes32"
        }
      ],
      "stateMutability": "view",
      "type": "function"
    },
    {
      "inputs": [],
      "name": "token",
      "outputs": [
        {
          "internalType": "address",
          "name": "",
          "type": "address"
        }
      ],
      "stateMutability": "view",
      "type": "function"
    },
    {
      "inputs": [],
      "name": "tokensAvailableForVesting",
      "outputs": [
        {
          "internalType": "uint256",
          "name": "",
          "type": "uint256"
        }
      ],
      "stateMutability": "view",
      "type": "function"
    },
    {
      "inputs": [],
      "name": "totalTokensInVesting",
      "outputs": [
        {
          "internalType": "uint256",
          "name": "",
          "type": "uint256"
        }
      ],
      "stateMutability": "view",
      "type": "function"
    },
    {
      "inputs": [
        {
          "internalType": "bytes32",
          "name": "vestingId",
          "type": "bytes32"
        }
      ],
      "name": "unpauseVesting",
      "outputs": [],
      "stateMutability": "nonpayable",
      "type": "function"
    },
    {
      "inputs": [
        {
          "internalType": "address",
          "name": "account",
          "type": "address"
        },
        {
          "internalType": "uint8",
          "name": "curveType",
          "type": "uint8"
        },
        {
          "internalType": "bool",
          "name": "managed",
          "type": "bool"
        },
        {
          "internalType": "uint16",
          "name": "durationWeeks",
          "type": "uint16"
        },
        {
          "internalType": "uint64",
          "name": "startDate",
          "type": "uint64"
        },
        {
          "internalType": "uint128",
          "name": "amount",
          "type": "uint128"
        }
      ],
      "name": "vestingHash",
      "outputs": [
        {
          "internalType": "bytes32",
          "name": "vestingId",
          "type": "bytes32"
        }
      ],
      "stateMutability": "view",
      "type": "function"
    },
    {
      "inputs": [
        {
          "internalType": "bytes32",
          "name": "",
          "type": "bytes32"
        }
      ],
      "name": "vestings",
      "outputs": [
        {
          "internalType": "address",
          "name": "account",
          "type": "address"
        },
        {
          "internalType": "uint8",
          "name": "curveType",
          "type": "uint8"
        },
        {
          "internalType": "bool",
          "name": "managed",
          "type": "bool"
        },
        {
          "internalType": "uint16",
          "name": "durationWeeks",
          "type": "uint16"
        },
        {
          "internalType": "uint64",
          "name": "startDate",
          "type": "uint64"
        },
        {
          "internalType": "uint128",
          "name": "amount",
          "type": "uint128"
        },
        {
          "internalType": "uint128",
          "name": "amountClaimed",
          "type": "uint128"
        },
        {
          "internalType": "uint64",
          "name": "pausingDate",
          "type": "uint64"
        },
        {
          "internalType": "bool",
          "name": "cancelled",
          "type": "bool"
        }
      ],
      "stateMutability": "view",
      "type": "function"
    }
  ],
  "bytecode": "0x60e06040523480156200001157600080fd5b506040516200487c3803806200487c83398181016040528101906200003791906200014e565b82828173ffffffffffffffffffffffffffffffffffffffff1660808173ffffffffffffffffffffffffffffffffffffffff1660601b815250508073ffffffffffffffffffffffffffffffffffffffff1660a08173ffffffffffffffffffffffffffffffffffffffff1660601b815250505050428167ffffffffffffffff1611620000f8576040517f08c379a0000000000000000000000000000000000000000000000000000000008152600401620000ef90620001cb565b60405180910390fd5b8067ffffffffffffffff1660c08167ffffffffffffffff1660c01b81525050505050620002c9565b600081519050620001318162000295565b92915050565b6000815190506200014881620002af565b92915050565b6000806000606084860312156200016457600080fd5b6000620001748682870162000120565b9350506020620001878682870162000120565b92505060406200019a8682870162000137565b9150509250925092565b6000620001b3602783620001ed565b9150620001c08262000246565b604082019050919050565b60006020820190508181036000830152620001e681620001a4565b9050919050565b600082825260208201905092915050565b60006200020b8262000212565b9050919050565b600073ffffffffffffffffffffffffffffffffffffffff82169050919050565b600067ffffffffffffffff82169050919050565b7f52656465656d20646561646c696e652073686f756c6420626520696e2074686560008201527f2066757475726500000000000000000000000000000000000000000000000000602082015250565b620002a081620001fe565b8114620002ac57600080fd5b50565b620002ba8162000232565b8114620002c657600080fd5b50565b60805160601c60a05160601c60c05160c01c6144ee6200038e6000396000818161140a0152818161191e0152611ac90152600081816103b001528181610670015281816107be01528181610ab801528181610c9801528181610fe80152818161142e015281816118900152611d09015260008181610374015281816104820152818161052f015281816106ac01528181610782015281816108910152818161093e01528181610ba601528181610f30015281816119d90152611d3301526144ee6000f3fe608060405234801561001057600080fd5b50600436106101155760003560e01c80638899f311116100a2578063bf6213e411610071578063bf6213e4146102bc578063d7faa145146102d8578063dc4c90d314610309578063ebf0c71714610327578063fc0c546a1461034557610115565b80638899f3111461022e5780638f5b3c3b1461024c5780639fb0c41d14610268578063a27c7a02146102a057610115565b80632bafa73c116100e95780632bafa73c1461018c5780632e0427aa146101a85780633034d534146101c65780635d76df6b146101e25780636cbab0791461021257610115565b806287b83f1461011a578063073804811461013657806307861fe614610154578063166bbd3b14610170575b600080fd5b610134600480360381019061012f9190612ba5565b610363565b005b61013e610ab0565b60405161014b91906138c5565b60405180910390f35b61016e60048036038101906101699190612b7c565b610ab6565b005b61018a60048036038101906101859190612ba5565b610b95565b005b6101a660048036038101906101a19190612b7c565b610c96565b005b6101b0610f2a565b6040516101bd91906138c5565b60405180910390f35b6101e060048036038101906101db9190612b7c565b610fe6565b005b6101fc60048036038101906101f79190612aca565b6112dd565b60405161020991906133fb565b60405180910390f35b61022c60048036038101906102279190612aca565b6113cd565b005b610236611408565b60405161024391906138e0565b60405180910390f35b61026660048036038101906102619190612b7c565b61142c565b005b610282600480360381019061027d9190612b7c565b61178b565b6040516102979998979695949392919061336e565b60405180910390f35b6102ba60048036038101906102b59190612aa1565b61188e565b005b6102d660048036038101906102d19190612c1d565b611ac7565b005b6102f260048036038101906102ed9190612b7c565b611c25565b60405161030092919061389c565b60405180910390f35b610311611d07565b60405161031e9190613255565b60405180910390f35b61032f611d2b565b60405161033c91906133fb565b60405180910390f35b61034d611d31565b60405161035a9190613255565b60405180910390f35b6000610370848484611d55565b90507f000000000000000000000000000000000000000000000000000000000000000073ffffffffffffffffffffffffffffffffffffffff1663095ea7b37f0000000000000000000000000000000000000000000000000000000000000000836040518363ffffffff1660e01b81526004016103ed92919061331c565b602060405180830381600087803b15801561040757600080fd5b505af115801561041b573d6000803e3d6000fd5b505050506040513d601f19601f8201168201806040525081019061043f9190612b53565b61047e576040517f08c379a0000000000000000000000000000000000000000000000000000000008152600401610475906134dc565b60405180910390fd5b60007f000000000000000000000000000000000000000000000000000000000000000073ffffffffffffffffffffffffffffffffffffffff166370a08231306040518263ffffffff1660e01b81526004016104d99190613255565b60206040518083038186803b1580156104f157600080fd5b505afa158015610505573d6000803e3d6000fd5b505050506040513d601f19601f820116820180604052508101906105299190612bf4565b905060007f000000000000000000000000000000000000000000000000000000000000000073ffffffffffffffffffffffffffffffffffffffff166370a08231866040518263ffffffff1660e01b81526004016105869190613255565b60206040518083038186803b15801561059e57600080fd5b505afa1580156105b2573d6000803e3d6000fd5b505050506040513d601f19601f820116820180604052508101906105d69190612bf4565b905060003086856040516024016105ef93929190613270565b6040516020818303038152906040527f23b872dd000000000000000000000000000000000000000000000000000000007bffffffffffffffffffffffffffffffffffffffffffffffffffffffff19166020820180517bffffffffffffffffffffffffffffffffffffffffffffffffffffffff838183161783525050505090507f000000000000000000000000000000000000000000000000000000000000000073ffffffffffffffffffffffffffffffffffffffff1663468721a77f000000000000000000000000000000000000000000000000000000000000000060008460006040518563ffffffff1660e01b81526004016106ef94939291906132d0565b602060405180830381600087803b15801561070957600080fd5b505af115801561071d573d6000803e3d6000fd5b505050506040513d601f19601f820116820180604052508101906107419190612b53565b610780576040517f08c379a00000000000000000000000000000000000000000000000000000000081526004016107779061387c565b60405180910390fd5b7f000000000000000000000000000000000000000000000000000000000000000073ffffffffffffffffffffffffffffffffffffffff1663095ea7b37f000000000000000000000000000000000000000000000000000000000000000060006040518363ffffffff1660e01b81526004016107fc9291906132a7565b602060405180830381600087803b15801561081657600080fd5b505af115801561082a573d6000803e3d6000fd5b505050506040513d601f19601f8201168201806040525081019061084e9190612b53565b61088d576040517f08c379a0000000000000000000000000000000000000000000000000000000008152600401610884906137bc565b60405180910390fd5b60007f000000000000000000000000000000000000000000000000000000000000000073ffffffffffffffffffffffffffffffffffffffff166370a08231306040518263ffffffff1660e01b81526004016108e89190613255565b60206040518083038186803b15801561090057600080fd5b505afa158015610914573d6000803e3d6000fd5b505050506040513d601f19601f820116820180604052508101906109389190612bf4565b905060007f000000000000000000000000000000000000000000000000000000000000000073ffffffffffffffffffffffffffffffffffffffff166370a08231896040518263ffffffff1660e01b81526004016109959190613255565b60206040518083038186803b1580156109ad57600080fd5b505afa1580156109c1573d6000803e3d6000fd5b505050506040513d601f19601f820116820180604052508101906109e59190612bf4565b9050856fffffffffffffffffffffffffffffffff1685610a059190613b03565b8214610a46576040517f08c379a0000000000000000000000000000000000000000000000000000000008152600401610a3d9061383c565b60405180910390fd5b856fffffffffffffffffffffffffffffffff1684610a64919061396e565b8114610aa5576040517f08c379a0000000000000000000000000000000000000000000000000000000008152600401610a9c906137dc565b60405180910390fd5b505050505050505050565b60005481565b7f000000000000000000000000000000000000000000000000000000000000000073ffffffffffffffffffffffffffffffffffffffff163373ffffffffffffffffffffffffffffffffffffffff1614610b44576040517f08c379a0000000000000000000000000000000000000000000000000000000008152600401610b3b9061373c565b60405180910390fd5b6000801b60025414610b8b576040517f08c379a0000000000000000000000000000000000000000000000000000000008152600401610b829061365c565b60405180910390fd5b8060028190555050565b6000610ba2848484611d55565b90507f000000000000000000000000000000000000000000000000000000000000000073ffffffffffffffffffffffffffffffffffffffff1663a9059cbb84836040518363ffffffff1660e01b8152600401610bff92919061331c565b602060405180830381600087803b158015610c1957600080fd5b505af1158015610c2d573d6000803e3d6000fd5b505050506040513d601f19601f82011682018060405250810190610c519190612b53565b610c90576040517f08c379a0000000000000000000000000000000000000000000000000000000008152600401610c87906136dc565b60405180910390fd5b50505050565b7f000000000000000000000000000000000000000000000000000000000000000073ffffffffffffffffffffffffffffffffffffffff163373ffffffffffffffffffffffffffffffffffffffff1614610d24576040517f08c379a0000000000000000000000000000000000000000000000000000000008152600401610d1b9061373c565b60405180910390fd5b6000600160008381526020019081526020016000209050600073ffffffffffffffffffffffffffffffffffffffff168160000160009054906101000a900473ffffffffffffffffffffffffffffffffffffffff1673ffffffffffffffffffffffffffffffffffffffff161415610dcf576040517f08c379a0000000000000000000000000000000000000000000000000000000008152600401610dc6906135dc565b60405180910390fd5b8060000160159054906101000a900460ff16610e20576040517f08c379a0000000000000000000000000000000000000000000000000000000008152600401610e17906135bc565b60405180910390fd5b60008160020160009054906101000a900467ffffffffffffffff1667ffffffffffffffff1614610e85576040517f08c379a0000000000000000000000000000000000000000000000000000000008152600401610e7c9061385c565b60405180910390fd5b8060000160189054906101000a900467ffffffffffffffff1667ffffffffffffffff16421115610eb55742610ecf565b8060000160189054906101000a900467ffffffffffffffff165b8160020160006101000a81548167ffffffffffffffff021916908367ffffffffffffffff160217905550817f871860f90ed272e98149ef133136694f00424a57465aa85bfc2535dfd4d450b860405160405180910390a25050565b600080547f000000000000000000000000000000000000000000000000000000000000000073ffffffffffffffffffffffffffffffffffffffff166370a08231306040518263ffffffff1660e01b8152600401610f879190613255565b60206040518083038186803b158015610f9f57600080fd5b505afa158015610fb3573d6000803e3d6000fd5b505050506040513d601f19601f82011682018060405250810190610fd79190612bf4565b610fe19190613b03565b905090565b7f000000000000000000000000000000000000000000000000000000000000000073ffffffffffffffffffffffffffffffffffffffff163373ffffffffffffffffffffffffffffffffffffffff1614611074576040517f08c379a000000000000000000000000000000000000000000000000000000000815260040161106b9061373c565b60405180910390fd5b6000600160008381526020019081526020016000209050600073ffffffffffffffffffffffffffffffffffffffff168160000160009054906101000a900473ffffffffffffffffffffffffffffffffffffffff1673ffffffffffffffffffffffffffffffffffffffff16141561111f576040517f08c379a0000000000000000000000000000000000000000000000000000000008152600401611116906135dc565b60405180910390fd5b60008160020160009054906101000a900467ffffffffffffffff1667ffffffffffffffff161415611185576040517f08c379a000000000000000000000000000000000000000000000000000000000815260040161117c9061381c565b60405180910390fd5b8060020160089054906101000a900460ff16156111d7576040517f08c379a00000000000000000000000000000000000000000000000000000000081526004016111ce906137fc565b60405180910390fd5b60008160020160009054906101000a900467ffffffffffffffff1667ffffffffffffffff1642111561122c578160020160009054906101000a900467ffffffffffffffff16426112279190613b37565b61122f565b60005b9050808260000160189054906101000a900467ffffffffffffffff1661125591906139c4565b8260000160186101000a81548167ffffffffffffffff021916908367ffffffffffffffff16021790555060008260020160006101000a81548167ffffffffffffffff021916908367ffffffffffffffff160217905550827f1bf30dbd59905813e462b38cc5a44f3aadd0ee101ec6d7537139f5c7f8a9868560405160405180910390a2505050565b6000807f47e79534a245952e8b16893a336b85a3d9ea9fa8c573f3d803afb92a7946921860001b463060405160200161131893929190613485565b60405160208183030381529060405280519060200120905060007f43838b5ce9ca440d1ac21b07179a1fdd88aa2175e5ea103f6e37aa6d18ce78ad60001b8989898989896040516020016113729796959493929190613416565b604051602081830303815290604052805190602001209050601960f81b600160f81b83836040516020016113a99493929190613207565b60405160208183030381529060405280519060200120925050509695505050505050565b6040517f08c379a00000000000000000000000000000000000000000000000000000000081526004016113ff9061355c565b60405180910390fd5b7f000000000000000000000000000000000000000000000000000000000000000081565b7f000000000000000000000000000000000000000000000000000000000000000073ffffffffffffffffffffffffffffffffffffffff163373ffffffffffffffffffffffffffffffffffffffff16146114ba576040517f08c379a00000000000000000000000000000000000000000000000000000000081526004016114b19061373c565b60405180910390fd5b6000600160008381526020019081526020016000209050600073ffffffffffffffffffffffffffffffffffffffff168160000160009054906101000a900473ffffffffffffffffffffffffffffffffffffffff1673ffffffffffffffffffffffffffffffffffffffff161415611565576040517f08c379a000000000000000000000000000000000000000000000000000000000815260040161155c906135dc565b60405180910390fd5b8060000160159054906101000a900460ff166115b6576040517f08c379a00000000000000000000000000000000000000000000000000000000081526004016115ad9061369c565b60405180910390fd5b8060020160089054906101000a900460ff1615611608576040517f08c379a00000000000000000000000000000000000000000000000000000000081526004016115ff906135fc565b60405180910390fd5b60008160000160189054906101000a900467ffffffffffffffff1667ffffffffffffffff16421115905060008260020160009054906101000a900467ffffffffffffffff1667ffffffffffffffff1614156116ad57806116685742611682565b8160000160189054906101000a900467ffffffffffffffff165b8260020160006101000a81548167ffffffffffffffff021916908367ffffffffffffffff1602179055505b6000816116ed576116bd8361205a565b8360010160009054906101000a90046fffffffffffffffffffffffffffffffff166116e89190613acf565b61170f565b8260010160009054906101000a90046fffffffffffffffffffffffffffffffff165b9050806fffffffffffffffffffffffffffffffff166000808282546117349190613b03565b9250508190555060018360020160086101000a81548160ff021916908315150217905550837fc27a46a60d5d211f8ef42242a25d5db8357aefb1bd0e7d8fbab00d4c40d4d1c760405160405180910390a250505050565b60016020528060005260406000206000915090508060000160009054906101000a900473ffffffffffffffffffffffffffffffffffffffff16908060000160149054906101000a900460ff16908060000160159054906101000a900460ff16908060000160169054906101000a900461ffff16908060000160189054906101000a900467ffffffffffffffff16908060010160009054906101000a90046fffffffffffffffffffffffffffffffff16908060010160109054906101000a90046fffffffffffffffffffffffffffffffff16908060020160009054906101000a900467ffffffffffffffff16908060020160089054906101000a900460ff16905089565b7f000000000000000000000000000000000000000000000000000000000000000073ffffffffffffffffffffffffffffffffffffffff163373ffffffffffffffffffffffffffffffffffffffff161461191c576040517f08c379a00000000000000000000000000000000000000000000000000000000081526004016119139061373c565b60405180910390fd5b7f000000000000000000000000000000000000000000000000000000000000000067ffffffffffffffff164211611988576040517f08c379a000000000000000000000000000000000000000000000000000000000815260040161197f906136bc565b60405180910390fd5b6000611992610f2a565b9050600081116119d7576040517f08c379a00000000000000000000000000000000000000000000000000000000081526004016119ce9061353c565b60405180910390fd5b7f000000000000000000000000000000000000000000000000000000000000000073ffffffffffffffffffffffffffffffffffffffff1663a9059cbb83836040518363ffffffff1660e01b8152600401611a32929190613345565b602060405180830381600087803b158015611a4c57600080fd5b505af1158015611a60573d6000803e3d6000fd5b505050506040513d601f19601f82011682018060405250810190611a849190612b53565b611ac3576040517f08c379a0000000000000000000000000000000000000000000000000000000008152600401611aba906136dc565b60405180910390fd5b5050565b7f000000000000000000000000000000000000000000000000000000000000000067ffffffffffffffff16421115611b34576040517f08c379a0000000000000000000000000000000000000000000000000000000008152600401611b2b9061351c565b60405180910390fd5b6000801b6002541415611b7c576040517f08c379a0000000000000000000000000000000000000000000000000000000008152600401611b739061361c565b60405180910390fd5b6000611b8d338860008989896122c3565b9050611bdd838380806020026020016040519081016040528093929190818152602001838360200280828437600081840152601f19601f8201169050808301925050505050505060025483612763565b611c1c576040517f08c379a0000000000000000000000000000000000000000000000000000000008152600401611c139061377c565b60405180910390fd5b50505050505050565b6000806000600160008581526020019081526020016000209050600073ffffffffffffffffffffffffffffffffffffffff168160000160009054906101000a900473ffffffffffffffffffffffffffffffffffffffff1673ffffffffffffffffffffffffffffffffffffffff161415611cd3576040517f08c379a0000000000000000000000000000000000000000000000000000000008152600401611cca906135dc565b60405180910390fd5b611cdc8161205a565b92508060010160109054906101000a90046fffffffffffffffffffffffffffffffff16915050915091565b7f000000000000000000000000000000000000000000000000000000000000000081565b60025481565b7f000000000000000000000000000000000000000000000000000000000000000081565b60008073ffffffffffffffffffffffffffffffffffffffff168373ffffffffffffffffffffffffffffffffffffffff161415611dc6576040517f08c379a0000000000000000000000000000000000000000000000000000000008152600401611dbd906134fc565b60405180910390fd5b60006001600086815260200190815260200160002090503373ffffffffffffffffffffffffffffffffffffffff168160000160009054906101000a900473ffffffffffffffffffffffffffffffffffffffff1673ffffffffffffffffffffffffffffffffffffffff1614611e6f576040517f08c379a0000000000000000000000000000000000000000000000000000000008152600401611e669061363c565b60405180910390fd5b60008160010160109054906101000a90046fffffffffffffffffffffffffffffffff16611e9b8361205a565b611ea59190613acf565b90506fffffffffffffffffffffffffffffffff8016846fffffffffffffffffffffffffffffffff1614611ed85783611eda565b805b9250806fffffffffffffffffffffffffffffffff16836fffffffffffffffffffffffffffffffff161115611f43576040517f08c379a0000000000000000000000000000000000000000000000000000000008152600401611f3a906134bc565b60405180910390fd5b826fffffffffffffffffffffffffffffffff16600080828254611f669190613b03565b92505081905550828260010160108282829054906101000a90046fffffffffffffffffffffffffffffffff16611f9c9190613928565b92506101000a8154816fffffffffffffffffffffffffffffffff02191690836fffffffffffffffffffffffffffffffff1602179055508473ffffffffffffffffffffffffffffffffffffffff168260000160009054906101000a900473ffffffffffffffffffffffffffffffffffffffff1673ffffffffffffffffffffffffffffffffffffffff16877f31b718389b1eb92df83ab00c1a5112e5bb8a02c7c1c9c02e1e3c15ad33e0532660405160405180910390a450509392505050565b6000428260000160189054906101000a900467ffffffffffffffff1667ffffffffffffffff1611156120c1576040517f08c379a00000000000000000000000000000000000000000000000000000000081526004016120b89061371c565b60405180910390fd5b6000603c80601860078660000160169054906101000a900461ffff1661ffff166120eb9190613a8d565b6120f59190613a8d565b6120ff9190613a8d565b6121099190613a8d565b90506000808460020160009054906101000a900467ffffffffffffffff1667ffffffffffffffff161161215f578360000160189054906101000a900467ffffffffffffffff164261215a9190613b37565b61219c565b8360000160189054906101000a900467ffffffffffffffff168460020160009054906101000a900467ffffffffffffffff1661219b9190613b37565b5b90508167ffffffffffffffff168167ffffffffffffffff16106121e1578360010160009054906101000a90046fffffffffffffffffffffffffffffffff1692506122bc565b60008460000160149054906101000a900460ff1660ff161415612230576122298460010160009054906101000a90046fffffffffffffffffffffffffffffffff16828461277a565b92506122bb565b60018460000160149054906101000a900460ff1660ff16141561227f576122788460010160009054906101000a90046fffffffffffffffffffffffffffffffff16828461281c565b92506122ba565b6040517f08c379a00000000000000000000000000000000000000000000000000000000081526004016122b19061357c565b60405180910390fd5b5b5b5050919050565b60008073ffffffffffffffffffffffffffffffffffffffff168773ffffffffffffffffffffffffffffffffffffffff161415612334576040517f08c379a000000000000000000000000000000000000000000000000000000000815260040161232b9061375c565b60405180910390fd5b60028660ff161061237a576040517f08c379a0000000000000000000000000000000000000000000000000000000008152600401612371906136fc565b60405180910390fd5b6123888787878787876112dd565b9050600073ffffffffffffffffffffffffffffffffffffffff166001600083815260200190815260200160002060000160009054906101000a900473ffffffffffffffffffffffffffffffffffffffff1673ffffffffffffffffffffffffffffffffffffffff161461242f576040517f08c379a00000000000000000000000000000000000000000000000000000000081526004016124269061367c565b60405180910390fd5b6000612439610f2a565b9050826fffffffffffffffffffffffffffffffff16811015612490576040517f08c379a00000000000000000000000000000000000000000000000000000000081526004016124879061379c565b60405180910390fd5b826fffffffffffffffffffffffffffffffff166000808282546124b3919061396e565b925050819055506040518061012001604052808973ffffffffffffffffffffffffffffffffffffffff1681526020018860ff16815260200187151581526020018661ffff1681526020018567ffffffffffffffff168152602001846fffffffffffffffffffffffffffffffff16815260200160006fffffffffffffffffffffffffffffffff168152602001600067ffffffffffffffff168152602001600015158152506001600084815260200190815260200160002060008201518160000160006101000a81548173ffffffffffffffffffffffffffffffffffffffff021916908373ffffffffffffffffffffffffffffffffffffffff16021790555060208201518160000160146101000a81548160ff021916908360ff16021790555060408201518160000160156101000a81548160ff02191690831515021790555060608201518160000160166101000a81548161ffff021916908361ffff16021790555060808201518160000160186101000a81548167ffffffffffffffff021916908367ffffffffffffffff16021790555060a08201518160010160006101000a8154816fffffffffffffffffffffffffffffffff02191690836fffffffffffffffffffffffffffffffff16021790555060c08201518160010160106101000a8154816fffffffffffffffffffffffffffffffff02191690836fffffffffffffffffffffffffffffffff16021790555060e08201518160020160006101000a81548167ffffffffffffffff021916908367ffffffffffffffff1602179055506101008201518160020160086101000a81548160ff0219169083151502179055509050508773ffffffffffffffffffffffffffffffffffffffff16827fff2781f5af6cf115d187dd0e4ef590f5d1288b83ef3eb6739c69db99e70c8b4d60405160405180910390a3509695505050505050565b60008261277085846128e8565b1490509392505050565b6000808267ffffffffffffffff168467ffffffffffffffff16866fffffffffffffffffffffffffffffffff166127b09190613a33565b6127ba9190613a02565b90506fffffffffffffffffffffffffffffffff8016811115612811576040517f08c379a00000000000000000000000000000000000000000000000000000000081526004016128089061359c565b60405180910390fd5b809150509392505050565b6000808267ffffffffffffffff168367ffffffffffffffff1661283f9190613a33565b8467ffffffffffffffff168567ffffffffffffffff16876fffffffffffffffffffffffffffffffff166128729190613a33565b61287c9190613a33565b6128869190613a02565b90506fffffffffffffffffffffffffffffffff80168111156128dd576040517f08c379a00000000000000000000000000000000000000000000000000000000081526004016128d49061359c565b60405180910390fd5b809150509392505050565b60008082905060005b8451811015612978576000858281518110612935577f4e487b7100000000000000000000000000000000000000000000000000000000600052603260045260246000fd5b60200260200101519050808311612957576129508382612983565b9250612964565b6129618184612983565b92505b50808061297090613cc1565b9150506128f1565b508091505092915050565b600082600052816020526040600020905092915050565b6000813590506129a981614400565b92915050565b60008083601f8401126129c157600080fd5b8235905067ffffffffffffffff8111156129da57600080fd5b6020830191508360208202830111156129f257600080fd5b9250929050565b600081359050612a0881614417565b92915050565b600081519050612a1d81614417565b92915050565b600081359050612a328161442e565b92915050565b600081359050612a4781614445565b92915050565b600081359050612a5c8161445c565b92915050565b600081519050612a7181614473565b92915050565b600081359050612a868161448a565b92915050565b600081359050612a9b816144a1565b92915050565b600060208284031215612ab357600080fd5b6000612ac18482850161299a565b91505092915050565b60008060008060008060c08789031215612ae357600080fd5b6000612af189828a0161299a565b9650506020612b0289828a01612a8c565b9550506040612b1389828a016129f9565b9450506060612b2489828a01612a4d565b9350506080612b3589828a01612a77565b92505060a0612b4689828a01612a38565b9150509295509295509295565b600060208284031215612b6557600080fd5b6000612b7384828501612a0e565b91505092915050565b600060208284031215612b8e57600080fd5b6000612b9c84828501612a23565b91505092915050565b600080600060608486031215612bba57600080fd5b6000612bc886828701612a23565b9350506020612bd98682870161299a565b9250506040612bea86828701612a38565b9150509250925092565b600060208284031215612c0657600080fd5b6000612c1484828501612a62565b91505092915050565b60008060008060008060a08789031215612c3657600080fd5b6000612c4489828a01612a8c565b9650506020612c5589828a01612a4d565b9550506040612c6689828a01612a77565b9450506060612c7789828a01612a38565b935050608087013567ffffffffffffffff811115612c9457600080fd5b612ca089828a016129af565b92509250509295509295509295565b612cb881613b6b565b82525050565b612cc781613b7d565b82525050565b612cde612cd982613b89565b613d0a565b82525050565b612ced81613bb5565b82525050565b612d04612cff82613bb5565b613d14565b82525050565b6000612d15826138fb565b612d1f8185613906565b9350612d2f818560208601613c8e565b612d3881613d7c565b840191505092915050565b612d4c81613c34565b82525050565b612d5b81613c58565b82525050565b612d6a81613c6a565b82525050565b6000612d7d601f83613917565b9150612d8882613d8d565b602082019050919050565b6000612da0601883613917565b9150612dab82613db6565b602082019050919050565b6000612dc3601983613917565b9150612dce82613ddf565b602082019050919050565b6000612de6602c83613917565b9150612df182613e08565b604082019050919050565b6000612e09601283613917565b9150612e1482613e57565b602082019050919050565b6000612e2c602e83613917565b9150612e3782613e80565b604082019050919050565b6000612e4f601283613917565b9150612e5a82613ecf565b602082019050919050565b6000612e72601d83613917565b9150612e7d82613ef8565b602082019050919050565b6000612e95602383613917565b9150612ea082613f21565b604082019050919050565b6000612eb8601183613917565b9150612ec382613f70565b602082019050919050565b6000612edb601983613917565b9150612ee682613f99565b602082019050919050565b6000612efe601a83613917565b9150612f0982613fc2565b602082019050919050565b6000612f21602483613917565b9150612f2c82613feb565b604082019050919050565b6000612f44601e83613917565b9150612f4f8261403a565b602082019050919050565b6000612f67601783613917565b9150612f7282614063565b602082019050919050565b6000612f8a602683613917565b9150612f958261408c565b604082019050919050565b6000612fad601c83613917565b9150612fb8826140db565b602082019050919050565b6000612fd0601583613917565b9150612fdb82614104565b602082019050919050565b6000612ff3601583613917565b9150612ffe8261412d565b602082019050919050565b6000613016601683613917565b915061302182614156565b602082019050919050565b6000613039602283613917565b91506130448261417f565b604082019050919050565b600061305c600f83613917565b9150613067826141ce565b602082019050919050565b600061307f601483613917565b915061308a826141f7565b602082019050919050565b60006130a2601b83613917565b91506130ad82614220565b602082019050919050565b60006130c5602283613917565b91506130d082614249565b604082019050919050565b60006130e8602383613917565b91506130f382614298565b604082019050919050565b600061310b603183613917565b9150613116826142e7565b604082019050919050565b600061312e601583613917565b915061313982614336565b602082019050919050565b6000613151602183613917565b915061315c8261435f565b604082019050919050565b6000613174601683613917565b915061317f826143ae565b602082019050919050565b6000613197601983613917565b91506131a2826143d7565b602082019050919050565b6131b681613bbf565b82525050565b6131c581613c7c565b82525050565b6131d481613bdb565b82525050565b6131e381613c09565b82525050565b6131f281613c13565b82525050565b61320181613c27565b82525050565b60006132138287612ccd565b6001820191506132238286612ccd565b6001820191506132338285612cf3565b6020820191506132438284612cf3565b60208201915081905095945050505050565b600060208201905061326a6000830184612caf565b92915050565b60006060820190506132856000830186612caf565b6132926020830185612caf565b61329f60408301846131ad565b949350505050565b60006040820190506132bc6000830185612caf565b6132c96020830184612d52565b9392505050565b60006080820190506132e56000830187612caf565b6132f26020830186612d52565b81810360408301526133048185612d0a565b90506133136060830184612d61565b95945050505050565b60006040820190506133316000830185612caf565b61333e60208301846131bc565b9392505050565b600060408201905061335a6000830185612caf565b61336760208301846131da565b9392505050565b600061012082019050613384600083018c612caf565b613391602083018b6131f8565b61339e604083018a612cbe565b6133ab60608301896131cb565b6133b860808301886131e9565b6133c560a08301876131ad565b6133d260c08301866131ad565b6133df60e08301856131e9565b6133ed610100830184612cbe565b9a9950505050505050505050565b60006020820190506134106000830184612ce4565b92915050565b600060e08201905061342b600083018a612ce4565b6134386020830189612caf565b61344560408301886131f8565b6134526060830187612cbe565b61345f60808301866131cb565b61346c60a08301856131e9565b61347960c08301846131ad565b98975050505050505050565b600060608201905061349a6000830186612ce4565b6134a760208301856131da565b6134b46040830184612d43565b949350505050565b600060208201905081810360008301526134d581612d70565b9050919050565b600060208201905081810360008301526134f581612d93565b9050919050565b6000602082019050818103600083015261351581612db6565b9050919050565b6000602082019050818103600083015261353581612dd9565b9050919050565b6000602082019050818103600083015261355581612dfc565b9050919050565b6000602082019050818103600083015261357581612e1f565b9050919050565b6000602082019050818103600083015261359581612e42565b9050919050565b600060208201905081810360008301526135b581612e65565b9050919050565b600060208201905081810360008301526135d581612e88565b9050919050565b600060208201905081810360008301526135f581612eab565b9050919050565b6000602082019050818103600083015261361581612ece565b9050919050565b6000602082019050818103600083015261363581612ef1565b9050919050565b6000602082019050818103600083015261365581612f14565b9050919050565b6000602082019050818103600083015261367581612f37565b9050919050565b6000602082019050818103600083015261369581612f5a565b9050919050565b600060208201905081810360008301526136b581612f7d565b9050919050565b600060208201905081810360008301526136d581612fa0565b9050919050565b600060208201905081810360008301526136f581612fc3565b9050919050565b6000602082019050818103600083015261371581612fe6565b9050919050565b6000602082019050818103600083015261373581613009565b9050919050565b600060208201905081810360008301526137558161302c565b9050919050565b600060208201905081810360008301526137758161304f565b9050919050565b6000602082019050818103600083015261379581613072565b9050919050565b600060208201905081810360008301526137b581613095565b9050919050565b600060208201905081810360008301526137d5816130b8565b9050919050565b600060208201905081810360008301526137f5816130db565b9050919050565b60006020820190508181036000830152613815816130fe565b9050919050565b6000602082019050818103600083015261383581613121565b9050919050565b6000602082019050818103600083015261385581613144565b9050919050565b6000602082019050818103600083015261387581613167565b9050919050565b600060208201905081810360008301526138958161318a565b9050919050565b60006040820190506138b160008301856131ad565b6138be60208301846131ad565b9392505050565b60006020820190506138da60008301846131da565b92915050565b60006020820190506138f560008301846131e9565b92915050565b600081519050919050565b600082825260208201905092915050565b600082825260208201905092915050565b600061393382613bbf565b915061393e83613bbf565b9250826fffffffffffffffffffffffffffffffff0382111561396357613962613d1e565b5b828201905092915050565b600061397982613c09565b915061398483613c09565b9250827fffffffffffffffffffffffffffffffffffffffffffffffffffffffffffffffff038211156139b9576139b8613d1e565b5b828201905092915050565b60006139cf82613c13565b91506139da83613c13565b92508267ffffffffffffffff038211156139f7576139f6613d1e565b5b828201905092915050565b6000613a0d82613c09565b9150613a1883613c09565b925082613a2857613a27613d4d565b5b828204905092915050565b6000613a3e82613c09565b9150613a4983613c09565b9250817fffffffffffffffffffffffffffffffffffffffffffffffffffffffffffffffff0483118215151615613a8257613a81613d1e565b5b828202905092915050565b6000613a9882613c13565b9150613aa383613c13565b92508167ffffffffffffffff0483118215151615613ac457613ac3613d1e565b5b828202905092915050565b6000613ada82613bbf565b9150613ae583613bbf565b925082821015613af857613af7613d1e565b5b828203905092915050565b6000613b0e82613c09565b9150613b1983613c09565b925082821015613b2c57613b2b613d1e565b5b828203905092915050565b6000613b4282613c13565b9150613b4d83613c13565b925082821015613b6057613b5f613d1e565b5b828203905092915050565b6000613b7682613be9565b9050919050565b60008115159050919050565b60007fff0000000000000000000000000000000000000000000000000000000000000082169050919050565b6000819050919050565b60006fffffffffffffffffffffffffffffffff82169050919050565b600061ffff82169050919050565b600073ffffffffffffffffffffffffffffffffffffffff82169050919050565b6000819050919050565b600067ffffffffffffffff82169050919050565b600060ff82169050919050565b6000613c3f82613c46565b9050919050565b6000613c5182613be9565b9050919050565b6000613c6382613c09565b9050919050565b6000613c7582613c27565b9050919050565b6000613c8782613bbf565b9050919050565b60005b83811015613cac578082015181840152602081019050613c91565b83811115613cbb576000848401525b50505050565b6000613ccc82613c09565b91507fffffffffffffffffffffffffffffffffffffffffffffffffffffffffffffffff821415613cff57613cfe613d1e565b5b600182019050919050565b6000819050919050565b6000819050919050565b7f4e487b7100000000000000000000000000000000000000000000000000000000600052601160045260246000fd5b7f4e487b7100000000000000000000000000000000000000000000000000000000600052601260045260246000fd5b6000601f19601f8301169050919050565b7f547279696e6720746f20636c61696d20746f6f206d616e7920746f6b656e7300600082015250565b7f436f756c64206e6f7420617070726f766520746f6b656e730000000000000000600082015250565b7f43616e6e6f7420636c61696d20746f20302d6164647265737300000000000000600082015250565b7f446561646c696e6520746f2072656465656d2076657374696e6720686173206260008201527f65656e2065786365656465640000000000000000000000000000000000000000602082015250565b7f4e6f20746f6b656e7320746f20636c61696d0000000000000000000000000000600082015250565b7f54686973206d6574686f64206973206e6f7420617661696c61626c6520666f7260008201527f207468697320636f6e7472616374000000000000000000000000000000000000602082015250565b7f496e76616c696420637572766520747970650000000000000000000000000000600082015250565b7f4f766572666c6f7720696e2063757276652063616c63756c6174696f6e000000600082015250565b7f4f6e6c79206d616e616765642076657374696e67732063616e2062652070617560008201527f7365640000000000000000000000000000000000000000000000000000000000602082015250565b7f56657374696e67206e6f7420666f756e64000000000000000000000000000000600082015250565b7f56657374696e6720616c72656164792063616e63656c6c656400000000000000600082015250565b7f537461746520726f6f74206e6f7420696e697469616c697a6564000000000000600082015250565b7f43616e206f6e6c7920626520636c61696d65642062792076657374696e67206f60008201527f776e657200000000000000000000000000000000000000000000000000000000602082015250565b7f537461746520726f6f7420616c726561647920696e697469616c697a65640000600082015250565b7f56657374696e6720696420616c72656164792075736564000000000000000000600082015250565b7f4f6e6c79206d616e616765642076657374696e67732063616e2062652063616e60008201527f63656c6c65640000000000000000000000000000000000000000000000000000602082015250565b7f546f6b656e732063616e207374696c6c2062652072656465656d656400000000600082015250565b7f546f6b656e207472616e73666572206661696c65640000000000000000000000600082015250565b7f496e76616c69642076657374696e672063757276650000000000000000000000600082015250565b7f56657374696e67206e6f74206163746976652079657400000000000000000000600082015250565b7f43616e206f6e6c792062652063616c6c656420627920706f6f6c206d616e616760008201527f6572000000000000000000000000000000000000000000000000000000000000602082015250565b7f496e76616c6964206163636f756e740000000000000000000000000000000000600082015250565b7f496e76616c6964206d65726b6c652070726f6f66000000000000000000000000600082015250565b7f4e6f7420656e6f75676820746f6b656e7320617661696c61626c650000000000600082015250565b7f436f756c64206e6f742073657420746f6b656e20616c6c6f77616e636520746f60008201527f2030000000000000000000000000000000000000000000000000000000000000602082015250565b7f436f756c64206e6f742061646420746f6b656e7320746f2062656e656669636960008201527f6172790000000000000000000000000000000000000000000000000000000000602082015250565b7f56657374696e6720686173206265656e2063616e63656c6c656420616e64206360008201527f616e6e6f7420626520756e706175736564000000000000000000000000000000602082015250565b7f56657374696e67206973206e6f74207061757365640000000000000000000000600082015250565b7f436f756c64206e6f742064656475637420746f6b656e732066726f6d20706f6f60008201527f6c00000000000000000000000000000000000000000000000000000000000000602082015250565b7f56657374696e6720616c72656164792070617573656400000000000000000000600082015250565b7f4d6f64756c65207472616e73616374696f6e206661696c656400000000000000600082015250565b61440981613b6b565b811461441457600080fd5b50565b61442081613b7d565b811461442b57600080fd5b50565b61443781613bb5565b811461444257600080fd5b50565b61444e81613bbf565b811461445957600080fd5b50565b61446581613bdb565b811461447057600080fd5b50565b61447c81613c09565b811461448757600080fd5b50565b61449381613c13565b811461449e57600080fd5b50565b6144aa81613c27565b81146144b557600080fd5b5056fea2646970667358221220a1f112bb520177600c5c66e1af1517724036e52f5bcd813b91f65d7f1b92766764736f6c63430008040033",
  "linkReferences": {},
  "deployedLinkReferences": {}
}